{
  "_format": "hh-sol-artifact-1",
  "contractName": "MockAave",
  "sourceName": "contracts/MockAave.sol",
  "abi": [
    {
      "inputs": [
        {
          "internalType": "contract VaultBTC",
          "name": "_vbtc",
          "type": "address"
        }
      ],
      "stateMutability": "nonpayable",
      "type": "constructor"
    },
    {
      "anonymous": false,
      "inputs": [
        {
          "indexed": true,
          "internalType": "address",
          "name": "user",
          "type": "address"
        },
        {
          "indexed": false,
          "internalType": "uint256",
          "name": "amount",
          "type": "uint256"
        }
      ],
      "name": "Borrow",
      "type": "event"
    },
    {
      "anonymous": false,
      "inputs": [
        {
          "indexed": true,
          "internalType": "address",
          "name": "user",
          "type": "address"
        },
        {
          "indexed": false,
          "internalType": "uint256",
          "name": "amount",
          "type": "uint256"
        }
      ],
      "name": "Repay",
      "type": "event"
    },
    {
      "anonymous": false,
      "inputs": [
        {
          "indexed": true,
          "internalType": "address",
          "name": "user",
          "type": "address"
        },
        {
          "indexed": false,
          "internalType": "uint256",
          "name": "amount",
          "type": "uint256"
        }
      ],
      "name": "Supply",
      "type": "event"
    },
    {
      "anonymous": false,
      "inputs": [
        {
          "indexed": true,
          "internalType": "address",
          "name": "user",
          "type": "address"
        },
        {
          "indexed": false,
          "internalType": "uint256",
          "name": "amount",
          "type": "uint256"
        }
      ],
      "name": "Withdraw",
      "type": "event"
    },
    {
      "inputs": [],
      "name": "COLLATERAL_FACTOR",
      "outputs": [
        {
          "internalType": "uint256",
          "name": "",
          "type": "uint256"
        }
      ],
      "stateMutability": "view",
      "type": "function"
    },
    {
      "inputs": [],
      "name": "LIQUIDATION_THRESHOLD",
      "outputs": [
        {
          "internalType": "uint256",
          "name": "",
          "type": "uint256"
        }
      ],
      "stateMutability": "view",
      "type": "function"
    },
    {
      "inputs": [
        {
          "internalType": "uint256",
          "name": "amount",
          "type": "uint256"
        },
        {
          "internalType": "uint256",
          "name": "btcPrice",
          "type": "uint256"
        }
      ],
      "name": "borrow",
      "outputs": [],
      "stateMutability": "nonpayable",
      "type": "function"
    },
    {
      "inputs": [],
      "name": "borrowAPR",
      "outputs": [
        {
          "internalType": "uint256",
          "name": "",
          "type": "uint256"
        }
      ],
      "stateMutability": "view",
      "type": "function"
    },
    {
      "inputs": [
        {
          "internalType": "address",
          "name": "",
          "type": "address"
        }
      ],
      "name": "borrowed",
      "outputs": [
        {
          "internalType": "uint256",
          "name": "",
          "type": "uint256"
        }
      ],
      "stateMutability": "view",
      "type": "function"
    },
    {
      "inputs": [
        {
          "internalType": "address",
          "name": "user",
          "type": "address"
        }
      ],
      "name": "getUserAccountData",
      "outputs": [
        {
          "internalType": "uint256",
          "name": "totalSupplied",
          "type": "uint256"
        },
        {
          "internalType": "uint256",
          "name": "totalBorrowed",
          "type": "uint256"
        },
        {
          "internalType": "uint256",
          "name": "availableToBorrow",
          "type": "uint256"
        },
        {
          "internalType": "uint256",
          "name": "healthFactor",
          "type": "uint256"
        }
      ],
      "stateMutability": "view",
      "type": "function"
    },
    {
      "inputs": [
        {
          "internalType": "address",
          "name": "to",
          "type": "address"
        },
        {
          "internalType": "uint256",
          "name": "amount",
          "type": "uint256"
        }
      ],
      "name": "mintStablecoin",
      "outputs": [],
      "stateMutability": "nonpayable",
      "type": "function"
    },
    {
      "inputs": [
        {
          "internalType": "uint256",
          "name": "amount",
          "type": "uint256"
        }
      ],
      "name": "repay",
      "outputs": [],
      "stateMutability": "nonpayable",
      "type": "function"
    },
    {
      "inputs": [
        {
          "internalType": "address",
          "name": "",
          "type": "address"
        }
      ],
      "name": "stablecoinBalance",
      "outputs": [
        {
          "internalType": "uint256",
          "name": "",
          "type": "uint256"
        }
      ],
      "stateMutability": "view",
      "type": "function"
    },
    {
      "inputs": [
        {
          "internalType": "address",
          "name": "",
          "type": "address"
        }
      ],
      "name": "supplied",
      "outputs": [
        {
          "internalType": "uint256",
          "name": "",
          "type": "uint256"
        }
      ],
      "stateMutability": "view",
      "type": "function"
    },
    {
      "inputs": [
        {
          "internalType": "uint256",
          "name": "amount",
          "type": "uint256"
        }
      ],
      "name": "supply",
      "outputs": [],
      "stateMutability": "nonpayable",
      "type": "function"
    },
    {
      "inputs": [],
      "name": "supplyAPR",
      "outputs": [
        {
          "internalType": "uint256",
          "name": "",
          "type": "uint256"
        }
      ],
      "stateMutability": "view",
      "type": "function"
    },
    {
      "inputs": [],
      "name": "vaultBTC",
      "outputs": [
        {
          "internalType": "contract VaultBTC",
          "name": "",
          "type": "address"
        }
      ],
      "stateMutability": "view",
      "type": "function"
    },
    {
      "inputs": [
        {
          "internalType": "uint256",
          "name": "amount",
          "type": "uint256"
        }
      ],
      "name": "withdraw",
      "outputs": [],
      "stateMutability": "nonpayable",
      "type": "function"
    }
  ],
  "bytecode": "0x60a060405261012c6003556101f460045534801561001c57600080fd5b50604051610b8f380380610b8f83398101604081905261003b9161004c565b6001600160a01b031660805261007c565b60006020828403121561005e57600080fd5b81516001600160a01b038116811461007557600080fd5b9392505050565b608051610aea6100a5600039600081816101d0015281816104f901526106320152610aea6000f3fe608060405234801561001057600080fd5b50600436106100ea5760003560e01c80633a6515aa1161008c578063902781a911610066578063902781a9146101cb57806390a8ae9b1461020a578063a737908614610213578063bf92857c1461022657600080fd5b80633a6515aa146101995780633ad14c40146101a2578063649113a9146101c257600080fd5b806317f49e05116100c857806317f49e05146101575780632e1a7d4d146101605780633540302314610173578063371fd8e61461018657600080fd5b80630941cb3d146100ef5780630ecbcdab14610122578063155a720514610137575b600080fd5b61010f6100fd366004610996565b60026020526000908152604090205481565b6040519081526020015b60405180910390f35b6101356101303660046109b8565b610259565b005b61010f610145366004610996565b60016020526000908152604090205481565b61010f611d4c81565b61013561016e3660046109da565b6103fb565b6101356101813660046109da565b6105d7565b6101356101943660046109da565b61073c565b61010f60045481565b61010f6101b0366004610996565b60006020819052908152604090205481565b61010f60035481565b6101f27f000000000000000000000000000000000000000000000000000000000000000081565b6040516001600160a01b039091168152602001610119565b61010f611f4081565b6101356102213660046109f3565b610854565b610239610234366004610996565b610885565b604080519485526020850193909352918301526060820152608001610119565b6000821161029b5760405162461bcd60e51b8152600401610292906020808252600490820152635a45524f60e01b604082015260600190565b60405180910390fd5b336000908152600160205260409020546102e75760405162461bcd60e51b815260206004820152600d60248201526c1393d7d0d3d313105511549053609a1b6044820152606401610292565b33600090815260026020526040812054610302908490610a33565b33600090815260016020526040812054919250906305f5e10090610327908590610a46565b6103319190610a5d565b90506000612710610344611d4c84610a46565b61034e9190610a5d565b90508083111561038f5760405162461bcd60e51b815260206004820152600c60248201526b1093d49493d5d7d31253525560a21b6044820152606401610292565b33600090815260026020908152604080832086905590829052812080548792906103ba908490610a33565b909155505060405185815233907fcbc04eca7e9da35cb1393a6135a199ca52e450d5e9251cbd99f7847d33a367509060200160405180910390a25050505050565b60008111801561041a5750336000908152600160205260409020548111155b6104505760405162461bcd60e51b815260206004820152600760248201526620a6aa2fa4a72b60c91b6044820152606401610292565b3360009081526001602052604081205461046b908390610a7f565b33600090815260026020526040902054909150610489908290610940565b6104c15760405162461bcd60e51b8152602060048201526009602482015268554e4845414c54485960b81b6044820152606401610292565b33600081815260016020526040908190208390555163a9059cbb60e01b81526004810191909152602481018390526001600160a01b037f0000000000000000000000000000000000000000000000000000000000000000169063a9059cbb906044016020604051808303816000875af1158015610542573d6000803e3d6000fd5b505050506040513d601f19601f820116820180604052508101906105669190610a92565b61059e5760405162461bcd60e51b81526020600482015260096024820152681611915497d190525360ba1b6044820152606401610292565b60405182815233907f884edad9ce6fa2440d8a54cc123490eb96d2768479d49ff9c7366125a94243649060200160405180910390a25050565b600081116106105760405162461bcd60e51b8152600401610292906020808252600490820152635a45524f60e01b604082015260600190565b6040516323b872dd60e01b8152336004820152306024820152604481018290527f00000000000000000000000000000000000000000000000000000000000000006001600160a01b0316906323b872dd906064016020604051808303816000875af1158015610683573d6000803e3d6000fd5b505050506040513d601f19601f820116820180604052508101906106a79190610a92565b6106df5760405162461bcd60e51b81526020600482015260096024820152681611915497d190525360ba1b6044820152606401610292565b33600090815260016020526040812080548392906106fe908490610a33565b909155505060405181815233907fadacf827efe383160192c092d8658471945c074229a9746679b5e2b74adff191906020015b60405180910390a250565b60008111801561075b5750336000908152600260205260409020548111155b6107915760405162461bcd60e51b815260206004820152600760248201526620a6aa2fa4a72b60c91b6044820152606401610292565b336000908152602081905260409020548111156107da5760405162461bcd60e51b815260206004820152600760248201526642414c5f4c4f5760c81b6044820152606401610292565b33600090815260026020526040812080548392906107f9908490610a7f565b9091555050336000908152602081905260408120805483929061081d908490610a7f565b909155505060405181815233907f5c16de4f8b59bd9caf0f49a545f25819a895ed223294290b408242e72a59423190602001610731565b6001600160a01b0382166000908152602081905260408120805483929061087c908490610a33565b90915550505050565b6001600160a01b038116600090815260016020908152604080832054600290925282205490918083156109395760006127106108c3611d4c87610a46565b6108cd9190610a5d565b90508381116108dd5760006108e7565b6108e78482610a7f565b92508315610931576000612710610900611f4088610a46565b61090a9190610a5d565b90508461091f82670de0b6b3a7640000610a46565b6109299190610a5d565b925050610937565b60001991505b505b9193509193565b60008160000361095257506001610974565b6000612710610963611f4086610a46565b61096d9190610a5d565b8311159150505b92915050565b80356001600160a01b038116811461099157600080fd5b919050565b6000602082840312156109a857600080fd5b6109b18261097a565b9392505050565b600080604083850312156109cb57600080fd5b50508035926020909101359150565b6000602082840312156109ec57600080fd5b5035919050565b60008060408385031215610a0657600080fd5b610a0f8361097a565b946020939093013593505050565b634e487b7160e01b600052601160045260246000fd5b8082018082111561097457610974610a1d565b808202811582820484141761097457610974610a1d565b600082610a7a57634e487b7160e01b600052601260045260246000fd5b500490565b8181038181111561097457610974610a1d565b600060208284031215610aa457600080fd5b815180151581146109b157600080fdfea26469706673582212203e593d958fcd35e76c8eb56b4383fea53ac69ba636e82921aa66eea50530696d64736f6c63430008180033",
  "linkReferences": {},
  "deployedLinkReferences": {}
}