{
  "_format": "hh-sol-artifact-1",
  "contractName": "OracleEMA",
  "sourceName": "contracts/OracleEMA.sol",
  "abi": [
    {
      "inputs": [
        {
          "internalType": "int256",
          "name": "_price",
          "type": "int256"
        },
        {
          "internalType": "int256",
          "name": "_ema20",
          "type": "int256"
        },
        {
          "internalType": "int256",
          "name": "_ema50",
          "type": "int256"
        },
        {
          "internalType": "int256",
          "name": "_ema200",
          "type": "int256"
        }
      ],
      "stateMutability": "nonpayable",
      "type": "constructor"
    },
    {
      "anonymous": false,
      "inputs": [
        {
          "indexed": false,
          "internalType": "int256",
          "name": "price",
          "type": "int256"
        },
        {
          "indexed": false,
          "internalType": "int256",
          "name": "ema20",
          "type": "int256"
        },
        {
          "indexed": false,
          "internalType": "int256",
          "name": "ema50",
          "type": "int256"
        },
        {
          "indexed": false,
          "internalType": "int256",
          "name": "ema200",
          "type": "int256"
        },
        {
          "indexed": false,
          "internalType": "uint256",
          "name": "timestamp",
          "type": "uint256"
        }
      ],
      "name": "Update",
      "type": "event"
    },
    {
      "inputs": [],
      "name": "ema20",
      "outputs": [
        {
          "internalType": "int256",
          "name": "",
          "type": "int256"
        }
      ],
      "stateMutability": "view",
      "type": "function"
    },
    {
      "inputs": [],
      "name": "ema200",
      "outputs": [
        {
          "internalType": "int256",
          "name": "",
          "type": "int256"
        }
      ],
      "stateMutability": "view",
      "type": "function"
    },
    {
      "inputs": [],
      "name": "ema50",
      "outputs": [
        {
          "internalType": "int256",
          "name": "",
          "type": "int256"
        }
      ],
      "stateMutability": "view",
      "type": "function"
    },
    {
      "inputs": [],
      "name": "get",
      "outputs": [
        {
          "internalType": "int256",
          "name": "_price",
          "type": "int256"
        },
        {
          "internalType": "int256",
          "name": "_ema20",
          "type": "int256"
        },
        {
          "internalType": "int256",
          "name": "_ema50",
          "type": "int256"
        },
        {
          "internalType": "int256",
          "name": "_ema200",
          "type": "int256"
        }
      ],
      "stateMutability": "view",
      "type": "function"
    },
    {
      "inputs": [],
      "name": "getSignal",
      "outputs": [
        {
          "internalType": "int8",
          "name": "signal",
          "type": "int8"
        }
      ],
      "stateMutability": "view",
      "type": "function"
    },
    {
      "inputs": [],
      "name": "isBearish",
      "outputs": [
        {
          "internalType": "bool",
          "name": "",
          "type": "bool"
        }
      ],
      "stateMutability": "view",
      "type": "function"
    },
    {
      "inputs": [],
      "name": "isBullish",
      "outputs": [
        {
          "internalType": "bool",
          "name": "",
          "type": "bool"
        }
      ],
      "stateMutability": "view",
      "type": "function"
    },
    {
      "inputs": [],
      "name": "lastUpdate",
      "outputs": [
        {
          "internalType": "uint256",
          "name": "",
          "type": "uint256"
        }
      ],
      "stateMutability": "view",
      "type": "function"
    },
    {
      "inputs": [],
      "name": "owner",
      "outputs": [
        {
          "internalType": "address",
          "name": "",
          "type": "address"
        }
      ],
      "stateMutability": "view",
      "type": "function"
    },
    {
      "inputs": [],
      "name": "price",
      "outputs": [
        {
          "internalType": "int256",
          "name": "",
          "type": "int256"
        }
      ],
      "stateMutability": "view",
      "type": "function"
    },
    {
      "inputs": [
        {
          "internalType": "int256",
          "name": "_price",
          "type": "int256"
        },
        {
          "internalType": "int256",
          "name": "_ema20",
          "type": "int256"
        },
        {
          "internalType": "int256",
          "name": "_ema50",
          "type": "int256"
        },
        {
          "internalType": "int256",
          "name": "_ema200",
          "type": "int256"
        }
      ],
      "name": "setEMAs",
      "outputs": [],
      "stateMutability": "nonpayable",
      "type": "function"
    }
  ],
  "bytecode": "0x608060405234801561001057600080fd5b506040516105b83803806105b883398101604081905261002f91610174565b600080546001600160a01b0319163317905561004d84848484610056565b505050506101aa565b6000546001600160a01b031633146100a25760405162461bcd60e51b815260206004820152600a60248201526927a7262cafa7aba722a960b11b60448201526064015b60405180910390fd5b6000841380156100b25750600083135b80156100be5750600082135b80156100ca5750600081135b6101065760405162461bcd60e51b815260206004820152600d60248201526c494e56414c49445f505249434560981b6044820152606401610099565b60018490556002839055600382905560048190554260058190556040805186815260208101869052808201859052606081018490526080810192909252517f64d7c750ab1fb9c526b29c314202d8872a43feef10a57a16de2300095e672aa49181900360a00190a150505050565b6000806000806080858703121561018a57600080fd5b505082516020840151604085015160609095015191969095509092509050565b6103ff806101b96000396000f3fe608060405234801561001057600080fd5b50600436106100a95760003560e01c80638da5cb5b116100715780638da5cb5b1461013257806397b4c2ef1461015d578063a035b1fe14610165578063c04637111461016e578063c72077f614610177578063f5909fe91461018c57600080fd5b806311d31f41146100ae5780632809cefd146100ca578063518d118e146100e55780636d4ce63c146100fd57806375c469da14610129575b600080fd5b6100b760045481565b6040519081526020015b60405180910390f35b6100d2610195565b60405160009190910b81526020016100c1565b6100ed610241565b60405190151581526020016100c1565b6001546002546003546004546040805194855260208501939093529183015260608201526080016100c1565b6100b760035481565b600054610145906001600160a01b031681565b6040516001600160a01b0390911681526020016100c1565b6100ed61025e565b6100b760015481565b6100b760055481565b61018a610185366004610397565b610279565b005b6100b760025481565b60006002546001541380156101ad5750600354600154135b80156101bc5750600454600154135b156101c75750600290565b6002546001541380156101dd5750600354600154135b156101e85750600190565b6002546001541280156101fe5750600354600154125b801561020d5750600454600154125b15610219575060011990565b60025460015412801561022f5750600354600154125b1561023b575060001990565b50600090565b60006002546001541280156102595750600354600154125b905090565b60006002546001541380156102595750506003546001541390565b6000546001600160a01b031633146102c55760405162461bcd60e51b815260206004820152600a60248201526927a7262cafa7aba722a960b11b60448201526064015b60405180910390fd5b6000841380156102d55750600083135b80156102e15750600082135b80156102ed5750600081135b6103295760405162461bcd60e51b815260206004820152600d60248201526c494e56414c49445f505249434560981b60448201526064016102bc565b60018490556002839055600382905560048190554260058190556040805186815260208101869052808201859052606081018490526080810192909252517f64d7c750ab1fb9c526b29c314202d8872a43feef10a57a16de2300095e672aa49181900360a00190a150505050565b600080600080608085870312156103ad57600080fd5b505082359460208401359450604084013593606001359250905056fea2646970667358221220a6addcfb90085dda1f22dad30e0e26014a5df7aab8fc2770e76240a6839854a464736f6c63430008180033",
  "linkReferences": {},
  "deployedLinkReferences": {}
}