{
  "_format": "hh-sol-artifact-1",
  "contractName": "StrategyFactory",
  "sourceName": "contracts/StrategyFactory.sol",
  "abi": [
    {
      "inputs": [
        {
          "internalType": "contract VaultBTC",
          "name": "_vbtc",
          "type": "address"
        },
        {
          "internalType": "contract MockAave",
          "name": "_aave",
          "type": "address"
        },
        {
          "internalType": "contract IOracleEMA",
          "name": "_oracle",
          "type": "address"
        }
      ],
      "stateMutability": "nonpayable",
      "type": "constructor"
    },
    {
      "anonymous": false,
      "inputs": [
        {
          "indexed": true,
          "internalType": "address",
          "name": "owner",
          "type": "address"
        },
        {
          "indexed": true,
          "internalType": "address",
          "name": "vault",
          "type": "address"
        },
        {
          "indexed": false,
          "internalType": "enum LeverageStrategy.Risk",
          "name": "risk",
          "type": "uint8"
        },
        {
          "indexed": false,
          "internalType": "uint256",
          "name": "vaultIndex",
          "type": "uint256"
        }
      ],
      "name": "VaultCreated",
      "type": "event"
    },
    {
      "inputs": [],
      "name": "aave",
      "outputs": [
        {
          "internalType": "contract MockAave",
          "name": "",
          "type": "address"
        }
      ],
      "stateMutability": "view",
      "type": "function"
    },
    {
      "inputs": [
        {
          "internalType": "uint256",
          "name": "",
          "type": "uint256"
        }
      ],
      "name": "allVaults",
      "outputs": [
        {
          "internalType": "address",
          "name": "",
          "type": "address"
        }
      ],
      "stateMutability": "view",
      "type": "function"
    },
    {
      "inputs": [
        {
          "internalType": "enum LeverageStrategy.Risk",
          "name": "risk",
          "type": "uint8"
        }
      ],
      "name": "createVault",
      "outputs": [
        {
          "internalType": "address",
          "name": "vault",
          "type": "address"
        }
      ],
      "stateMutability": "nonpayable",
      "type": "function"
    },
    {
      "inputs": [
        {
          "internalType": "address",
          "name": "owner",
          "type": "address"
        }
      ],
      "name": "getVaultsByOwner",
      "outputs": [
        {
          "internalType": "address[]",
          "name": "",
          "type": "address[]"
        }
      ],
      "stateMutability": "view",
      "type": "function"
    },
    {
      "inputs": [],
      "name": "oracle",
      "outputs": [
        {
          "internalType": "contract IOracleEMA",
          "name": "",
          "type": "address"
        }
      ],
      "stateMutability": "view",
      "type": "function"
    },
    {
      "inputs": [],
      "name": "totalVaults",
      "outputs": [
        {
          "internalType": "uint256",
          "name": "",
          "type": "uint256"
        }
      ],
      "stateMutability": "view",
      "type": "function"
    },
    {
      "inputs": [],
      "name": "vaultBTC",
      "outputs": [
        {
          "internalType": "contract VaultBTC",
          "name": "",
          "type": "address"
        }
      ],
      "stateMutability": "view",
      "type": "function"
    },
    {
      "inputs": [
        {
          "internalType": "address",
          "name": "",
          "type": "address"
        },
        {
          "internalType": "uint256",
          "name": "",
          "type": "uint256"
        }
      ],
      "name": "vaultsByOwner",
      "outputs": [
        {
          "internalType": "address",
          "name": "",
          "type": "address"
        }
      ],
      "stateMutability": "view",
      "type": "function"
    }
  ],
  "bytecode": "0x60e060405234801561001057600080fd5b50604051611ba3380380611ba383398101604081905261002f91610064565b6001600160a01b0392831660805290821660a0521660c0526100b1565b6001600160a01b038116811461006157600080fd5b50565b60008060006060848603121561007957600080fd5b83516100848161004c565b60208501519093506100958161004c565b60408501519092506100a68161004c565b809150509250925092565b60805160a05160c051611ab06100f36000396000818160d501526101d001526000818160fc01526101af015260008181610134015261018e0152611ab06000f3fe608060405234801561001057600080fd5b50600436106100885760003560e01c80638d6540231161005b5780638d6540231461011e578063902781a91461012f5780639094a91e14610156578063ac8187111461016957600080fd5b8063132fa1541461008d5780631a0121db146100bd5780637dc0d1d0146100d0578063819faf7b146100f7575b600080fd5b6100a061009b3660046103d1565b610189565b6040516001600160a01b0390911681526020015b60405180910390f35b6100a06100cb366004610415565b6102ec565b6100a07f000000000000000000000000000000000000000000000000000000000000000081565b6100a07f000000000000000000000000000000000000000000000000000000000000000081565b6000546040519081526020016100b4565b6100a07f000000000000000000000000000000000000000000000000000000000000000081565b6100a061016436600461043f565b610324565b61017c610177366004610458565b61034e565b6040516100b49190610473565b6000807f00000000000000000000000000000000000000000000000000000000000000007f00000000000000000000000000000000000000000000000000000000000000007f000000000000000000000000000000000000000000000000000000000000000033866040516101fd906103c4565b61020b9594939291906104e2565b604051809103906000f080158015610227573d6000803e3d6000fd5b5060008054600181810183557f290decd9548b62a8d60345a988386fc84ba6bc95484008f6362f93160ef3e56390910180546001600160a01b0385166001600160a01b03199182168117909255338085526020848152604086208054808701825590875290862001805490921683179091559254939550859450927f49d9d5ee71c31f90b924eb3d543d2a989531439ed5cb3ac7dd7acd2dc3607abb9187916102d09190610521565b6040516102de929190610548565b60405180910390a350919050565b6001602052816000526040600020818154811061030857600080fd5b6000918252602090912001546001600160a01b03169150829050565b6000818154811061033457600080fd5b6000918252602090912001546001600160a01b0316905081565b6001600160a01b0381166000908152600160209081526040918290208054835181840281018401909452808452606093928301828280156103b857602002820191906000526020600020905b81546001600160a01b0316815260019091019060200180831161039a575b50505050509050919050565b6115178061056483390190565b6000602082840312156103e357600080fd5b8135600381106103f257600080fd5b9392505050565b80356001600160a01b038116811461041057600080fd5b919050565b6000806040838503121561042857600080fd5b610431836103f9565b946020939093013593505050565b60006020828403121561045157600080fd5b5035919050565b60006020828403121561046a57600080fd5b6103f2826103f9565b6020808252825182820181905260009190848201906040850190845b818110156104b45783516001600160a01b03168352928401929184019160010161048f565b50909695505050505050565b600381106104de57634e487b7160e01b600052602160045260246000fd5b9052565b6001600160a01b038681168252858116602083015284811660408301528316606082015260a0810161051760808301846104c0565b9695505050505050565b8181038181111561054257634e487b7160e01b600052601160045260246000fd5b92915050565b6040810161055682856104c0565b826020830152939250505056fe60e06040526127106008553480156200001757600080fd5b5060405162001517380380620015178339810160408190526200003a91620001c4565b6001600160a01b0385811660805284811660a052600080546001600160a01b031916858316179055821660c0526009805482919060ff1916600183600281111562000089576200008962000247565b021790555050604080518082018252612af881526101f460208083019182526000808052600180835293517fa6eef7e35abe7026729641147f7915573c7e97b47efa546f5f6e3230263bcb498054945161ffff92831663ffffffff199687161762010000918416820217909155865180880188526132c881526103e881860181815288865288875291517fcc69885fda6bcc1a4ace058b4a62bf5e179ea78fd58a1ccd71c22cc9b688792f80549351918616938916939093179085168402179091558751808901909852613a98885287850190815260029093529490925293517fd9d16d34ffb15ba3a3d852f0d403e2ce1d691fb54de27ac87cd2f993f3ec330f80549551831690940294909216911617919091179055506200025d92505050565b6001600160a01b0381168114620001c157600080fd5b50565b600080600080600060a08688031215620001dd57600080fd5b8551620001ea81620001ab565b6020870151909550620001fd81620001ab565b60408701519094506200021081620001ab565b60608701519093506200022381620001ab565b6080870151909250600381106200023957600080fd5b809150509295509295909350565b634e487b7160e01b600052602160045260246000fd5b60805160a05160c051611244620002d36000396000818161029b0152818161035301528181610ab30152610c39015260008181610274015281816106670152818161071a01528181610d790152610f480152600081816102c201528181610444015281816106960152610b3201526112446000f3fe608060405234801561001057600080fd5b50600436106101375760003560e01c8063731936fb116100b8578063819faf7b1161007c578063819faf7b1461026f5780638da5cb5b14610296578063902781a9146102bd578063b6b55f25146102e4578063ba5cf3b4146102f7578063d9bf38f91461030a57600080fd5b8063731936fb146101e15780637a160498146101ea5780637aa7c3c1146102335780637d7c2a1c1461023c5780637dc0d1d01461024457600080fd5b8063426a0c88116100ff578063426a0c88146101875780634a8c110a146101a15780634fdde099146101bd57806367b76ddc146101c557806370ded44d146101ce57600080fd5b80630bf6cc081461013c5780630c843921146101585780630e1470d91461016157806328254a65146101695780632e1a7d4d14610172575b600080fd5b61014560025481565b6040519081526020015b60405180910390f35b61014560075481565b610145610313565b61014560055481565b61018561018036600461100c565b610348565b005b6009546101949060ff1681565b60405161014f919061105d565b6101a961052a565b60405161014f989796959493929190611071565b6101456105b4565b61014560035481565b6101856101dc36600461100c565b6105d8565b61014560045481565b6102186101f83660046110bb565b60016020526000908152604090205461ffff808216916201000090041682565b6040805161ffff93841681529290911660208301520161014f565b61014560085481565b6101856107e5565b600054610257906001600160a01b031681565b6040516001600160a01b03909116815260200161014f565b6102577f000000000000000000000000000000000000000000000000000000000000000081565b6102577f000000000000000000000000000000000000000000000000000000000000000081565b6102577f000000000000000000000000000000000000000000000000000000000000000081565b6101856102f236600461100c565b610aa8565b6101856103053660046110bb565b610c2e565b61014560065481565b60006006546000036103255750600090565b600654600754610339906305f5e1006110f2565b6103439190611109565b905090565b336001600160a01b037f000000000000000000000000000000000000000000000000000000000000000016146103995760405162461bcd60e51b81526004016103909061112b565b60405180910390fd5b600081116103b95760405162461bcd60e51b81526004016103909061114f565b60006003546002546103cb919061116d565b9050818110156104115760405162461bcd60e51b8152602060048201526011602482015270494e53554646494349454e545f4652454560781b6044820152606401610390565b8160026000828254610423919061116d565b909155505060405163a9059cbb60e01b8152336004820152602481018390527f00000000000000000000000000000000000000000000000000000000000000006001600160a01b03169063a9059cbb906044016020604051808303816000875af1158015610495573d6000803e3d6000fd5b505050506040513d601f19601f820116820180604052508101906104b99190611180565b6104f15760405162461bcd60e51b81526020600482015260096024820152681611915497d190525360ba1b6044820152606401610390565b60405182815233907f884edad9ce6fa2440d8a54cc123490eb96d2768479d49ff9c7366125a94243649060200160405180910390a25050565b6002546003546004546005546008546000808086610549576000610565565b60035460055461055b906127106110f2565b6105659190611109565b9250600060065411610578576000610596565b60065460075461058c906305f5e1006110f2565b6105969190611109565b9150600960009054906101000a900460ff1690509091929394959697565b60006003546000036105c65750600090565b600354600554610339906127106110f2565b600081116105f85760405162461bcd60e51b81526004016103909061114f565b600060035460025461060a919061116d565b9050818110156106505760405162461bcd60e51b8152602060048201526011602482015270494e53554646494349454e545f4652454560781b6044820152606401610390565b60405163095ea7b360e01b81526001600160a01b037f000000000000000000000000000000000000000000000000000000000000000081166004830152602482018490527f0000000000000000000000000000000000000000000000000000000000000000169063095ea7b3906044016020604051808303816000875af11580156106df573d6000803e3d6000fd5b505050506040513d601f19601f820116820180604052508101906107039190611180565b50604051633540302360e01b8152600481018390527f00000000000000000000000000000000000000000000000000000000000000006001600160a01b031690633540302390602401600060405180830381600087803b15801561076657600080fd5b505af115801561077a573d6000803e3d6000fd5b50505050816003600082825461079091906111a2565b9250508190555081600560008282546107a991906111a2565b90915550506040518281527f5fb885acb2896c1c1480f281984d3d099299fdc92da63654228cdb117d41b30d9060200160405180910390a15050565b6000600354116108275760405162461bcd60e51b815260206004820152600d60248201526c1393d7d0d3d313105511549053609a1b6044820152606401610390565b60008060009054906101000a90046001600160a01b03166001600160a01b0316636d4ce63c6040518163ffffffff1660e01b8152600401608060405180830381865afa15801561087b573d6000803e3d6000fd5b505050506040513d601f19601f8201168201806040525081019061089f91906111b5565b505050905060008060009054906101000a90046001600160a01b03166001600160a01b0316632809cefd6040518163ffffffff1660e01b8152600401602060405180830381865afa1580156108f8573d6000803e3d6000fd5b505050506040513d601f19601f8201168201806040525081019061091c91906111eb565b60085460095491925090600090600190829060ff16600281111561094257610942611025565b600281111561095357610953611025565b81526020808201929092526040908101600090812082518084019093525461ffff8082168452620100009091041692820192909252915083810b1380156109a35750806000015161ffff16600854105b156109e7576000816020015161ffff16836109be91906111a2565b90506109d581612710846000015161ffff16610cd4565b6008556109e185610cfe565b50610a53565b60008360000b1280156109fd5750612710600854115b15610a53576000816020015161ffff168311610a1b57612710610a2e565b6020820151610a2e9061ffff168461116d565b9050610a4581612710846000015161ffff16610cd4565b600855610a5185610e7d565b505b6008546040805184815260208101929092528101859052600084900b60608201527f3702855cfbe23c458844a1b0eadfb47ceba33a75618536d02c60bbc9bd873fcb906080015b60405180910390a150505050565b336001600160a01b037f00000000000000000000000000000000000000000000000000000000000000001614610af05760405162461bcd60e51b81526004016103909061112b565b60008111610b105760405162461bcd60e51b81526004016103909061114f565b6040516323b872dd60e01b8152336004820152306024820152604481018290527f00000000000000000000000000000000000000000000000000000000000000006001600160a01b0316906323b872dd906064016020604051808303816000875af1158015610b83573d6000803e3d6000fd5b505050506040513d601f19601f82011682018060405250810190610ba79190611180565b610bdf5760405162461bcd60e51b81526020600482015260096024820152681611915497d190525360ba1b6044820152606401610390565b8060026000828254610bf191906111a2565b909155505060405181815233907fe1fffcc4923d04b559f4d29a8bfc6cda04eb5b0d3c460751c2402c5c5cc9109c9060200160405180910390a250565b336001600160a01b037f00000000000000000000000000000000000000000000000000000000000000001614610c765760405162461bcd60e51b81526004016103909061112b565b6009805482919060ff19166001836002811115610c9557610c95611025565b02179055507fe1aad4b73b325a0ba015945c91ee0c686b59cb013d409206053692c049aff40781604051610cc9919061105d565b60405180910390a150565b600082841015610ce5575081610cf7565b81841115610cf4575080610cf7565b50825b9392505050565b6000612710600854600354610d1391906110f2565b610d1d9190611109565b90506005548111610d2c575050565b600060055482610d3c919061116d565b905060006305f5e100610d4f85846110f2565b610d599190611109565b604051630ecbcdab60e01b815260048101829052602481018690529091507f00000000000000000000000000000000000000000000000000000000000000006001600160a01b031690630ecbcdab90604401600060405180830381600087803b158015610dc557600080fd5b505af1158015610dd9573d6000803e3d6000fd5b505050508060046000828254610def91906111a2565b925050819055508160056000828254610e0891906111a2565b925050819055508160066000828254610e2191906111a2565b925050819055508060076000828254610e3a91906111a2565b909155505060408051828152602081018490529081018590527fde094475d38c83dc78b4c0b26502e6c97339283662c1bd1e8be2af96a4deaa4d90606001610a9a565b600454600003610e8a5750565b6000612710600854600354610e9f91906110f2565b610ea99190611109565b90506005548110610eb8575050565b600081600554610ec8919061116d565b905060006305f5e100610edb85846110f2565b610ee59190611109565b905060006004548211610ef85781610efc565b6004545b9050600085610f0f836305f5e1006110f2565b610f199190611109565b90508060056000828254610f2d919061116d565b9091555050604051631b8fec7360e11b8152600481018390527f00000000000000000000000000000000000000000000000000000000000000006001600160a01b03169063371fd8e690602401600060405180830381600087803b158015610f9457600080fd5b505af1158015610fa8573d6000803e3d6000fd5b505050508160046000828254610fbe919061116d565b909155505060408051828152602081018490529081018790527fec2412547c47c8aabb779cc7793e7e287a0c82d6668980082f72a42ffb5818d59060600160405180910390a1505050505050565b60006020828403121561101e57600080fd5b5035919050565b634e487b7160e01b600052602160045260246000fd5b6003811061105957634e487b7160e01b600052602160045260246000fd5b9052565b6020810161106b828461103b565b92915050565b6000610100820190508982528860208301528760408301528660608301528560808301528460a08301528360c08301526110ae60e083018461103b565b9998505050505050505050565b6000602082840312156110cd57600080fd5b813560038110610cf757600080fd5b634e487b7160e01b600052601160045260246000fd5b808202811582820484141761106b5761106b6110dc565b60008261112657634e487b7160e01b600052601260045260246000fd5b500490565b6020808252600a908201526927a7262cafa7aba722a960b11b604082015260600190565b6020808252600490820152635a45524f60e01b604082015260600190565b8181038181111561106b5761106b6110dc565b60006020828403121561119257600080fd5b81518015158114610cf757600080fd5b8082018082111561106b5761106b6110dc565b600080600080608085870312156111cb57600080fd5b505082516020840151604085015160609095015191969095509092509050565b6000602082840312156111fd57600080fd5b81518060000b8114610cf757600080fdfea2646970667358221220a42d241e76821a27e8e6741d304f548685950e302e38ea8a28440ddbd0e25ed164736f6c63430008180033a264697066735822122098f787144b671672a8ad727a61d1573d9f2674d6e0c0078200c4f3cc6f32123e64736f6c63430008180033",
  "linkReferences": {},
  "deployedLinkReferences": {}
}